:020000040800F2
:100000000000022091200008252000082720000879
:10001000292000082B2000082D20000800000000E7
:100020000000000000000000000000002F20000879
:1000300031200008000000003320000835200008AF
:10004000E1200008E1200008E1200008E12000088C
:10005000E1200008E1200008E1200008E12000087C
:10006000E1200008E1200008E1200008E12000086C
:10007000E1200008E1200008E1200008E12000085C
:10008000E1200008E1200008E1200008E12000084C
:10009000E1200008E1200008E1200008E12000083C
:1000A000E1200008E1200008E1200008E12000082C
:1000B00039200008E1200008E1200008E1200008C4
:1000C000E1200008E1200008E1200008E12000080C
:1000D000E1200008E1200008E1200008E1200008FC
:1000E000E1200008E1200008E1200008E1200008EC
:1000F000E1200008E1200008E1200008E1200008DC
:10010000E1200008E1200008E1200008E1200008CB
:10011000E1200008E1200008E1200008E1200008BB
:10012000E1200008E1200008E1200008E1200008AB
:10013000E1200008E1200008E1200008E12000089B
:10014000E1200008E1200008E1200008E12000088B
:10015000E1200008E1200008E1200008E12000087B
:10016000E1200008E1200008E1200008E12000086B
:10017000E1200008E1200008E12000080000000064
:08018000E1200008E120000865
:1001880010B5054C237833B9044B13B10448AFF3C9
:1001980000800123237010BD0C0000200000000027
:1001A8003C21000808B5034B1BB103490348AFF3D2
:1001B800008008BD00000000100000203C2100085D
:1001C80053B94AB9002908BF00281CBF4FF0FF31B6
:1001D8004FF0FF3000F07AB9ADF1080C6DE904CEAC
:1001E80000F006F8DDF804E0DDE9022304B070470A
:1001F8002DE9F0478C460D460446089E002B51D148
:100208008A4217466DD9B2FA82FEBEF1000F0BD0B2
:10021800CEF1200C01FA0EF520FA0CFC02FA0EF7CA
:100228004CEA050C00FA0EF44FEA174A250CBCFB01
:10023800FAF81FFA87F90AFB18CC45EA0C4508FBBF
:1002480009F3AB420AD9ED1908F1FF3280F0238196
:10025800AB4240F22081A8F102083D44ED1AA4B255
:10026800B5FBFAF00AFB105544EA054400FB09F90E
:10027800A14509D9E41900F1FF3380F00A81A145AD
:1002880040F2078102383C44A4EB090440EA0840E4
:100298000021002E61D024FA0EF40023346073602C
:1002A800BDE8F0878B4207D9002E54D0002186E89C
:1002B80021000846BDE8F087B3FA83F1002940F031
:1002C8008E80AB4202D3824200F2FA80841A65EB38
:1002D80003050120AC46002E3FD086E81010BDE88B
:1002E800F08712B90127B7FBF2F7B7FA87FEBEF11C
:1002F800000F34D1EB1B3A0C1FFA87FC0121B3FB2A
:10030800F2F8250C02FB183345EA03450CFB08F309
:10031800AB4207D9ED1908F1FF3002D2AB4200F227
:10032800D1808046ED1AA3B2B5FBF2F002FB10555E
:1003380043EA05440CFB00FCA44507D9E41900F185
:10034800FF3302D2A44500F2B8801846A4EB0C048F
:1003580040EA08409DE731463046BDE8F087CEF1D7
:10036800200405FA0EF307FA0EF720FA04F83A0CFF
:1003780025FA04F448EA0308B4FBF2F14FEA1845F9
:1003880002FB11441FFA87FC45EA044501FB0CF304
:10039800AB4200FA0EF409D9ED1901F1FF3080F0F3
:1003A8008A80AB4240F2878002393D44EB1A1FFA3B
:1003B80088F5B3FBF2F002FB103345EA034500FB76
:1003C8000CF3AB4207D9ED1900F1FF386FD2AB42FD
:1003D8006DD902383D44EB1A40EA01418FE7C1F17B
:1003E800200722FA07F88B4005FA01F448EA0303CC
:1003F80020FA07FE4FEA134CFD404EEA040EB5FB07
:10040800FCF94FEA1E440CFB19551FFA83F844EA1D
:10041800054509FB08F4AC4202FA01F200FA01FAB8
:1004280008D9ED1809F1FF3043D2AC4241D9A9F1FE
:1004380002091D442D1B1FFA8EFEB5FBFCF00CFBB8
:1004480010554EEA054400FB08F8A04507D9E41802
:1004580000F1FF3529D2A04527D902381C4440EACB
:100468000940A4EB0804A0FB02894C45C6464D464A
:1004780015D312D056B1BAEB0E0364EB050404FA97
:1004880007F7CB401F43CC40376074600021BDE8BC
:10049800F0871846F8E69046E0E6C245EAD2B8EB9F
:1004A800020E69EB03050138E4E72846D7E7404622
:1004B80091E78146BEE7014678E702383C4445E7C4
:1004C800084608E7A8F102083D442BE7704700BF3B
:1004D80038B50E4A0E4B054618784FF47A73B3FBBD
:1004E800F0F31068B0FBF3F000F0AAF8044658B92E
:1004F8000F2D09D8024629464FF0FF3000F05EF86C
:10050800044B20461D6038BD012038BD080000207E
:10051800000000200400002008B50B4B1A6842F4C4
:1005280000721A601A6842F480621A601A6842F40B
:1005380080721A60032000F02FF80020FFF7C8FF30
:1005480001F0FCFC002008BD003C0240034A044BBB
:1005580011681B780B441360704700BF2800002007
:1005680000000020014B1868704700BF28000020D9
:1005780038B50446FFF7F6FF631C1CBF054B1B7814
:10058800054618BFE418FFF7EDFF401B8442FAD870
:1005980038BD00BF00000020074AD36823F4E06399
:1005A8001B041B0C43F0BF63000243F4003300F448
:1005B800E0600343D360704700ED00E0174B30B5AF
:1005C800DC68C4F30224C4F10703251D042B28BFEB
:1005D8000423062D4FF0010505FA03F303F1FF3359
:1005E8008CBF033C00241940A14005FA04F4013CE7
:1005F8002240002842EA01024FEA0212ADBF00F190
:10060800604000F00F00064B00F56140B5BFD2B264
:10061800D2B21A5480F8002330BD00BF00ED00E0CC
:1006280014ED00E0002808DB4209012300F01F0058
:1006380003FA00F0014B43F82200704700E100E0A4
:100648000138B0F1807F0AD2064B074A5860F02182
:1006580082F823100020072298601A607047012052
:10066800704700BF10E000E000ED00E02DE9F04F1A
:1006780085B00B68DFF8AC81684ADFF8AC9101936C
:1006880000234FF0010E019C0EFA03FE0EEA040649
:10069800B64540F0AE804C6824F01007022F16D102
:1006A8004FEAD30A00EB8A0A03F0070BDAF8205066
:1006B8004FEA8B0B4FF00F0C0CFA0BFC25EA0C0CD5
:1006C8000D6905FA0BF545EA0C05CAF820504FEA02
:1006D800430A0325D0F800B005FA0AF5ED4304F003
:1006E800030C0BEA050B0CFA0AFC013F4CEA0B0C55
:1006F800012FC0F800C011D8876807EA050BCF683A
:1007080007FA0AFC4CEA0B078760476827EA0E0ECF
:10071800C4F300179F4047EA0E074760C7683D408B
:100728008F6807FA0AF73D43C560E50061D54FF0C9
:10073800000BCDF80CB0D8F84470394D47F4804719
:10074800C8F84470D8F8447007F480470397039FAB
:1007580023F0030707F1804707F59C3703F0030CE4
:10076800D7F808A04FEA8C0C4FF00F0E0EFA0CFECB
:10077800A8422AEA0E0E43D005F58065A84241D06A
:1007880005F58065A8423FD005F58065A8423DD0B3
:1007980005F58065A8423BD048453BD005F5006586
:1007A800A84239D005F58065A84214BF0825072559
:1007B80005FA0CF545EA0E05BD601568F74314F413
:1007C800803F0CBF3D4035431560556814F4003F29
:1007D8000CBF3D4035435560956814F4801F0CBF2D
:1007E8003D4035439560D568A40254BF3D4035432C
:1007F800D5600133102B7FF444AF05B0BDE8F08F0E
:100808005D46D5E70125D3E70225D1E70325CFE7E4
:100818000425CDE70525CBE70625C9E7003C0140BF
:1008280000000240003802400014024001684B6991
:1008380013F480634FF0000210D06FF480634B61B3
:100848002023026380F83D3080F83E20036C80F856
:100858003C2043F0040303640120704718467047A6
:100868002DE9F843044617469946C1F307488EB266
:100878002568B8F1010F0CBF6B69AB6936EA030351
:1008880014BF0120002008B9BDE8F8836B695A0538
:1008980016D52B6843F400732B606FF480636B618B
:1008A80020220023236384F83D2084F83E30226C04
:1008B80042F00402226484F83C300120BDE8F88349
:1008C8007B1CD5D0FFF74EFEA0EB0900874201D371
:1008D800002FCDD100232022236384F83D2084F803
:1008E8003E30226C42F02002E4E770B504460D4623
:1008F800164623685B695B0701D5002070BD20465A
:10090800FFF794FFA8B96A1CF3D0FFF72BFE801BF2
:10091800854201D3002DECD100232022236384F8E3
:100928003D2084F83E30226C84F83C3042F02002AE
:100938002264012070BD70B504460D461646206835
:10094800436913F0400301D0002070BD4269D2060C
:100958000ED56FF0100242612022236384F83D20F7
:1009680084F83E30226C226484F83C30012070BD4B
:10097800FFF7F8FD801BA84201D8002DDFD1002326
:100988002022236384F83D2084F83E30226C42F014
:100998002002E8E72DE9F843089E044690461F46E2
:1009A800C1F307498DB22368B9F1010F0CBF5B6928
:1009B8009B6935EA03030CBF01230023434502D09A
:1009C8000020BDE8F8837B1CEDD0FFF7CBFD801B32
:1009D800874201D3002FE6D100232022236384F825
:1009E8003D2084F83E30226C84F83C3042F02002EE
:1009F80022640120BDE8F88370B504460D4616460A
:100A080023685B691B0601D5002070BD2046FFF7EF
:100A18000DFFA8B96A1CF3D0FFF7A4FD801B85421F
:100A280001D3002DECD100232022236384F83D203C
:100A380084F83E30226C84F83C3042F02002226474
:100A4800012070BD70B5044608B9012070BD90F84A
:100A58003D3003F0FF021BB980F83C2001F08AFA10
:100A68002268242384F83D30136823F001031360BF
:100A780000F0BAFD6568414B9D424DD8404B984205
:100A8800E3D922683F495368B0FBF1F123F03F03F3
:100A98000B435360136A23F03F030131194311627A
:100AA800D169364B21F44F419D4221F0FF0100F1FD
:100AB800FF3048D86D00B0FBF5F00130C0F30B03F0
:100AC800042B38BF04230B43D3611168206AE36900
:100AD80021F0C00103430B4313609168E068236968
:100AE80021F40341034321F0FF010B439360D168D4
:100AF800A069636921F0FF0103430B43D3601368C6
:100B080043F00103136000202023206484F83D3063
:100B1800206384F83E0070BD1B4B984295D922682B
:100B2800184E5368B0FBF6F623F03F033343536087
:100B3800136A4FF49671714323F03F034FF47A76AA
:100B4800B1FBF6F1A9E7A36853B905EB4503B0FB80
:100B5800F3F0431CC3F30B036BB143F40043B2E758
:100B680019236B43B0FBF3F0431CC3F30B0313B11E
:100B780043F44043A7E70123A5E700BFA08601008F
:100B88007F841E0040420F00FF083D002DE9FF4111
:100B980004461F460D469046FFF7E4FC94F83D30A6
:100BA800202B064604D00225284604B0BDE8F08173
:100BB80000901923012258492046FFF7EBFE002830
:100BC800F1D194F83C30012BEDD0012384F83C306E
:100BD80023681A68D2075EBF1A6842F001021A60D9
:100BE8001A6822F400621A60212284F83D2010223B
:100BF80084F83E20002222646785628D2285474A58
:100C0800E262E26AC4F82480082A04D0012A02D0E9
:100C180012F5803F04D11A6842F480721A6002E02B
:100C2800226B122AF7D000960A9B00224FF001117E
:100C38002046FFF7AFFE08B10125B5E72369226812
:100C4800B3F5804F13D105F0FE05156133460A9AB6
:100C580033492046FFF704FE05460028ECD12368F7
:100C680003905A6903929B690393039B44E0EB1139
:100C780003F0060343F0F00313612A490A9A334646
:100C88002046FFF7EDFD0028D6D12368EDB21D619F
:100C9800DCE732460A992046FFF7AEFE40B1236CE6
:100CA800042B01BF2268136843F400731360C3E781
:100CB800636A20681A4612F8011B01616262628D3C
:100CC800013A92B26285228D4769511E89B27F0727
:100CD80021850AD549B15978016102336362638D70
:100CE800013B9BB2023A6385228532460A99204627
:100CF800FFF7FBFD0028D2D1238D002BC9D1216835
:100D08000A6842F400720A60202284F83D2084F8C0
:100D18003C3084F83E3047E7020010000000FFFF37
:100D280002000100080001002DE9F043044689B0E3
:100D380098460F469146109EFFF714FC94F83D30F4
:100D4800202B054604D00227384609B0BDE8F083B9
:100D5800009019230122A6492046FFF71BFE002810
:100D6800F1D194F83C30012BEDD0012384F83C30CC
:100D780023681A68D0075EBF1A6842F001021A6039
:100D88001A6822F400621A60222284F83D20102298
:100D980084F83E2000222264A4F82A80628D2285ED
:100DA800944AE262E26A1968C4F8249041F48061C6
:100DB800082A196004D0012A02D012F5803F04D114
:100DC8001A6842F480721A6002E0226B112AF7D086
:100DD8000095334600224FF001112046FFF7DAFD57
:100DE80008B10127B0E72369B3F5804F236840D1E4
:100DF80047F00107FFB21F612B4632467E49204665
:100E0800FFF72EFD07460028EBD1228D2368002A24
:100E180063D0012A74D11A6822F480621A60049798
:100E28005A6904929A690492049A1A6842F4007200
:100E38001A60DFF8CC81238D002B58D0032B00F2E9
:100E4800BA80012B77D12A4631462046FFF773FD39
:100E58000028C6D12268636A12691A70636A01336E
:100E68006362238D013B2385638D013B9BB26385C0
:100E7800E1E74FEAE71808F0060848F0F0021A61BF
:100E88005E492B4632462046FFF7EAFC0028A8D1E7
:100E980023685949FFB21F6132462B462046FFF7A7
:100EA800DFFC024600289CD1236807905969079106
:100EB800996907910799196841F48071196020466A
:100EC800009533464FF00111FFF764FD002888D1E3
:100ED800226848F0F10313618EE703975A69039279
:100EE8009A690392039A1A6842F400721A602023DE
:100EF80084F83D30002384F83E3084F83C3023E702
:100F0800022A1A680DD122F480621A601A6842F423
:100F180000621A6005975A6905929B690593059BBB
:100F280087E742F480621A6006975A6906929B69BD
:100F38000693069B7DE7022B009533464FF000028F
:100F4800414620461AD1FFF725FD00287FF449AF16
:100F580023681A6842F400721A60626A1B69137087
:100F6800626A531C6362238D013B2385638D013BB9
:100F78009BB2638523681B6953706FE7FFF70AFD0F
:100F8800024600287FF42DAF2368196821F4806198
:100F98001960616A1B690B70636A009501336362AB
:100FA800238D013B2385638D013B9BB263854146BD
:100FB80033462046C7E72A4631462046FFF7BBFCA2
:100FC80000287FF40EAF2268636A12691A70626A99
:100FD800531C6362238D013B2385638D013B9BB2C8
:100FE80063852368596949077FF525AFC3E700BFC3
:100FF800020010000000FFFF0200010008000100CD
:10100800040001002DE9F04F044685B09846894652
:101018009246FFF7A7FA94F83D30202B054603D0F7
:10102800022005B0BDE8F08F00901923012248493D
:101038002046FFF7AFFC0028F2D194F83C30012B92
:10104800EED0012384F83C302368DFF804B11A6835
:10105800D2075EBF1A6842F001021A601A6822F4C9
:1010680000621A60242384F83D3000232364A3F52A
:101078008033E362012709F0FE092268136843F40C
:10108800807313604FF001110095434600222046FB
:10109800FFF780FC08B10120C3E72368C3F810906C
:1010A800FFF760FA23685A695B690546C2F3400294
:1010B800C3F38023A02694F83D10A02901D002B9DB
:1010C80003B32368202684F83D605A6912F0020FA2
:1010D8001A6842F400721A6026D0002203925A69F4
:1010E80003929B690393039B0095192301221849D6
:1010F8002046FFF74FFC0028CDD184F83D6084F8E6
:101108003C008EE7FFF72EFA401B804502D3B8F16A
:10111800000F01D184F83D6023685A695B69C2F306
:101128004002C3F38023C6E76FF480625A615946D0
:101138000095192301222046FFF72CFC0028AAD18C
:101148000137574599D384F83D6084F83C00A2E7FD
:10115800020010002DE9F341044618B9012002B03D
:10116800BDE8F0810368DD0710D42368980758D4D8
:1011780023681A0700F19A8023685B0700F1B8809A
:10118800A269002A40F019810020E8E7A64B9A6876
:1011980002F00C02042A07D09A6802F00C02082A0E
:1011A8000AD15B68590207D59F4B1B689A03DCD5A7
:1011B8006368002BD9D1D1E763689B4DB3F5803FB5
:1011C80011D12B6843F480332B60FFF7CBF9964D90
:1011D80006462B689B03C8D4FFF7C4F9801B642814
:1011E800F7D90320BBE7B3F5A02F04D12B6843F44C
:1011F80080232B60E5E72A6822F480322A602A6877
:1012080022F480222A60002BDFD1FFF7ABF90646D3
:101218002B689F03A9D5FFF7A5F9801B6428F7D988
:10122800DFE7814B9A6812F00C0F07D09A6802F03A
:101238000C02082A11D15B685E020ED47A4B1A6838
:10124800950702D5E268012A88D11A68216922F037
:10125800F80242EAC1021A608AE7E268734BB2B147
:1012680001221A60FFF77EF96F4D06462B68980732
:1012780007D52B68226923F0F80343EAC2032B60E1
:1012880076E7FFF76FF9801B0228EFD9A9E71A6004
:10129800FFF768F9644D06462B6899077FF568AF34
:1012A800FFF760F9801B0228F6D99AE76269604B5C
:1012B8007AB101221A60FFF755F95B4D06466B6F4C
:1012C8009F073FF559AFFFF74DF9801B0228F6D964
:1012D80087E71A60FFF746F9534D06466B6F980784
:1012E8007FF54AAFFFF73EF9801B0228F6D978E769
:1012F8004D4B1A6C12F0805228D101921A6C42F0B0
:1013080080521A641B6C03F080530193019B0126E1
:10131800484D2B68D9051BD5A368434D012B27D110
:101328002B6F43F001032B67FFF71CF93E4D07466F
:1013380041F288382B6F9B0739D5002E3FF420AF38
:10134800394A136C23F08053136419E70026DFE74A
:101358002B6843F480732B60FFF704F907462B686A
:10136800DA05D9D4FFF7FEF8C01B0228F7D938E709
:10137800052B04D12B6F43F004032B67D0E72A6FAA
:1013880022F001022A672A6F22F004022A67002B42
:10139800CAD1FFF7E7F841F2883807462B6F98075C
:1013A800CBD5FFF7DFF8C01B4045F7D919E7FFF7A2
:1013B800D9F8C01B4045BDD913E71B4DAB6803F0F6
:1013C8000C03082B3FF4CAAE1B4E0023022A3360DD
:1013D80034D1FFF7C7F807462B6899011ED4226A53
:1013E800E3691343626A43EA8213E26A43EA0263E7
:1013F800A26A0D4C5208013A43EA02436B6001238A
:101408003360FFF7AFF8054623689A013FF5BCAE95
:10141800FFF7A8F8401B0228F6D9E2E6FFF7A2F882
:10142800C01B0228D8D9DCE6003802400000474239
:10143800800E47420070004060004742FFF792F874
:1014480004462B689B017FF59FAEFFF78BF8001BC6
:101458000228F6D9C5E600BF134908B58B6803F022
:101468000C03042B03D0082B03D0104808BD1048E8
:1014780008BD4A684B68496813F4800314BF0C48D8
:101488000A48C1F3881118BF002302F03F02A1FBEC
:101498000001FEF795FE044B5B68C3F3014301337B
:1014A8005B00B0FBF3F008BD003802400024F400F4
:1014B80040787D012DE9F0410D46044610B9012020
:1014C800BDE8F081444B1A6802F00F028A4228D323
:1014D80021688F072DD4C80740D43F4B1A6802F003
:1014E8000F02954266D3226851076CD4130707D5BB
:1014F8003A4A2169936823F4604343EAC10393603D
:10150800FFF7AAFF354B364A9B68C3F30313D35C36
:10151800D840344B18600020FEF7DAFF0020BDE801
:10152800F081CAB21A701B6803F00F039942C6D142
:10153800CEE72A4B11F0040F1EBF9A6842F4E0521E
:101548009A600E0742BF9A6842F460429A609A68AD
:10155800A06822F0F00202439A60BCE762681F4B61
:10156800012A1DD11B6813F4003FA8D01B4EB36895
:1015780023F003031343B360FEF7F4FF41F2883806
:101588000746B368626803F00C03B3EB820FA4D07C
:10159800FEF7E8FFC01B4045F3D90320BDE8F08102
:1015A800911E01291B6802D813F0007FDDE713F0B4
:1015B800020FDAE7EAB21A701B6803F00F039D42C4
:1015C8007FF47DAF8FE70549E0688B6823F4E0532B
:1015D80003438B608AE700BF003C024000380240AA
:1015E8005421000808000020044B054A9B68C3F3F7
:1015F8008223D35C034A1068D84070470038024001
:1016080064210008080000200368DA6842F001023B
:10161800DA609A6802F00702062A1EBF1A6842F0CA
:1016280001021A6000207047704770477047704782
:1016380003681A69910710B504460ED5DA6892074F
:101648000BD56FF002021A619B6901229B07027792
:1016580077D0FFF7EAFF0023237723681A6950073A
:1016680010D5DA6851070DD56FF004021A619B692D
:10167800022213F4407F2277204668D0FFF7D5FF77
:101688000023237723681A6912070FD5DA68100731
:101698000CD56FF008021A61DB69042299072277DA
:1016A80020465AD0FFF7C1FF0023237723681A6921
:1016B800D20610D5DA68D0060DD56FF010021A617F
:1016C800DB69082213F4407F227720464BD0FFF7CE
:1016D800ACFF0023237723681A69D10708D5DA6895
:1016E800D20705D56FF001021A61204600F062FBAF
:1016F80023681A69100608D5DA68110605D56FF04F
:1017080080021A61204600F072F923681A695206AD
:1017180008D5DA68500605D56FF040021A612046F0
:10172800FFF785FF23681A69910622D5DA689206C1
:101738001FD56FF0200220461A61BDE8104000F066
:1017480055B9FFF771FF2046FFF770FF83E7FFF7F2
:101758006BFF2046FFF76AFF92E7FFF765FF204619
:10176800FFF764FFA0E7FFF75FFF2046FFF75EFF84
:10177800AFE710BD304A0368904212D0B0F1804FF5
:101788000FD0A2F57C4290420BD002F580629042C5
:1017980007D002F58062904203D002F57842904269
:1017A80019D14A6823F070031343234A904229D081
:1017B800B0F1804F26D0A2F57C42904222D002F5AB
:1017C800806290421ED002F5806290421AD002F5E3
:1017D8007842904216D0194A904213D002F580629E
:1017E80090420FD002F5806290420BD0A2F5983259
:1017F800904207D002F58062904203D002F58062E1
:10180800904203D1CA6823F4407313434A6923F012
:101818008003134303608B68C3620B688362064BC3
:10182800984203D003F58063984201D10B690363A2
:1018380001234361704700BF0000014000400140A0
:1018480010B50446A0B190F83D3003F0FF021BB973
:1018580080F83C2000F0C6FB022384F83D30206865
:10186800211DFFF787FF012384F83D30002010BDBC
:10187800012010BD10B584680A4324F47F4442EA6D
:1018880003232343836010BD90F83C30012B70B5CF
:1018980004464FF0020019D084F83D002068012367
:1018A80084F83C30836823F47F4323F07703836014
:1018B8000B68402B65D015D8102B0CD007D853B126
:1018C8000123002084F83D3084F83C0070BD202BB3
:1018D80001D0302BF4D1826843F0070322F0700264
:1018E80013431AE0602B34D019D8502BE8D14A683A
:1018F800CE68016A056A25F001050562836921F051
:101908000A0123F0F00343EA06130A4383610262E3
:10191800836823F0700343F057038360D0E7702B8C
:101928000CD0B3F5005FCBD1CB684A688968FFF764
:10193800A1FF2268936843F4804308E0CB684A68B3
:101948008968FFF797FF2268936843F077039360ED
:10195800B6E74D68CE68016A21F01001016282691C
:10196800036A22F4704223F0A00343EA051342EA13
:10197800063282610362836823F0700343F06703D1
:10198800CBE74A68CE68016A056A25F00105056259
:10199800836921F00A0123F0F00343EA06130A439E
:1019A80083610262836823F0700343F04703B4E75E
:1019B80090F83C30012B30B54FF0020314D0046886
:1019C80080F83D306268A3680D68496822F07002AB
:1019D80023F080030B432A436260A360012380F84D
:1019E8003D30002380F83C30184630BD70477047C2
:1019F80030B595B03022002108A800F093FB0021F3
:101A0800142203A800F08EFB00241D4B01941A6CCD
:101A180042F080521A641B6C03F080530193019BBF
:101A2800184B02941A6842F480421A601B6803F447
:101A380080430293029B012308934FF48033099358
:101A48004FF480030F93192310934FF4A8730225C2
:101A5800119308A8042313930E951295FFF77AFBA8
:101A68000F2303934FF4A053069305214FF480539B
:101A780003A8049505940793FFF71CFD15B030BD26
:101A8800003802400070004030B5642387B001225E
:101A980050211D48FFF7B6FA044690BB14250723CA
:101AA8008DF80C308DF80D00022303AA5021009503
:101AB8001548FFF76BF8012303AA50210095124837
:101AC8008DF80C40FFF762F8042300950DF10D0224
:101AD80050210D48FFF728F99DF80D30A02B0DD1A6
:101AE8009DF80E30FB2B09D19DF80F30322B05D114
:101AF8009DF81040A4F10F035C425C41204607B0FA
:101B080030BD0024FAE700BF600000202DE9F34152
:101B1800FFF7BAFF0128FBD1744C754814263E2301
:101B28000025237022460223502100966570FFF796
:101B38002DF83D23237022460223502100966C483D
:101B48006570FFF723F83F232370E1236370224673
:101B58000223502100966648FFF718F84FF42F70BB
:101B6800FEF706FD36236570614D2370274604F1A4
:101B78000108637803F00F030F2B40F091801425C0
:101B880001274FF0070800950223584A584884F85F
:101B9800008050216770FEF7F9FF082300262370A4
:101BA80000950223514A524866705021FEF7EEFF15
:101BB800009502234D4A4E4884F8008050216670F3
:101BC800FEF7E4FF3B23237006236370009502238E
:101BD800464A47485021FEF7D9FFEC225523237087
:101BE8006270FF2362716422A3702371A371E27192
:101BF800A3737922E8236272E3749E220323E62109
:101C0800E2722375FE228723E17022736273E77301
:101C180067746375022700951723344A344826727F
:101C280050214FF03D08A6722674A674A775FEF7DA
:101C3800ADFF3B462D4A009550212D4884F8008081
:101C48006670FEF7A3FF1920FEF792FC3F2323706E
:101C58008023264A637050213B4600952448FEF7AE
:101C680095FF4FF42F70FEF783FC0C2363700095EB
:101C78003B461E4A1E4884F800805021FEF786FF26
:101C880028461A4DFEF774FC35236670184E2370EB
:101C980005F101086378FF2B15D102B0BDE8F0818A
:101CA80014263A460096012350212846FEF76EFF77
:101CB80000960123424650212846FFF735F8642054
:101CC800FEF756FC55E714272A46009701235021B2
:101CD8003046FEF75BFF009701234246502130460D
:101CE800FFF722F8C820FEF743FCD3E72E000020B8
:101CF8006000002000B589B00024FEF70DFCFFF756
:101D080077FE274B00941A6B2648274D42F0800235
:101D18001A631A6B02F080020092009A01941A6BFF
:101D280042F002021A631B6B204A846003F002032C
:101D38000193019B1E4BC46080E80C004FF4804364
:101D4800036144618461C4610462FEF77BFE102272
:101D58000DEB0200214600F0E5F94FF080415423D5
:101D680085E80A00284642F21073EB600294039457
:101D7800AC602C61AC61FFF763FD4FF4805304A99C
:101D880028460493FFF780FD02A92846029403948D
:101D9800FFF70EFEFFF7BAFE2846FFF735FCFEE711
:101DA8000038024060000020D000002000540040AD
:101DB800801A06000368B3F1804F37B540F0918070
:101DC800494C4A48082314252370224601235021F0
:101DD8000095FEF7DBFE2C23621C0095502143483A
:101DE800FEF7A2FFA278637843EA0223404A1380F1
:101DF8002279E37843EA02233E4A1380A279637981
:101E080043EA02233C4A1380227AE37943EA022315
:101E18003A4A1380A27A637A43EA0223384A138043
:101E2800227BE37A43EA0223364A1380A27B637B50
:101E380043EA0223344A1380227CE37B43EA0223E9
:101E4800324A1380A27C637C43EA0223304A13801F
:101E5800A27E637E43EA02232E4A1380227FE37E1A
:101E680043EA02232C4A1380A27F637F43EA0223BA
:101E78002A4A138094F82020E37F43EA0223284A61
:101E8800138094F8222094F8213043EA0223254A4B
:101E9800138094F8242094F8233043EA0223224A3A
:101EA800138094F8262094F8253043EA02231F4A29
:101EB800138094F8282094F8273043EA02231C4A18
:101EC800138094F82A2094F8293043EA0223194A07
:101ED800138094F82C2094F82B3043EA0223164AF6
:101EE800138003B030BD00BF2E000020600000202A
:101EF800C000002016010020BC00002018010020AE
:101F0800BE000020CC000020B800002010010020F6
:101F18002C000020B6000020C6000020140100207C
:101F2800C4000020CA000020B4000020C200002025
:101F380012010020BA000020C800002082B00C4B1B
:101F4800002100915A6C42F480425A645A6C02F49F
:101F580080420092009A01911A6C42F080521A64F1
:101F68001B6C03F080530193019B02B0704700BFC4
:101F78000038024030B5044689B01422002103A875
:101F880000F0D0F82268144B9A4223D1134C14481D
:101F980000250195236B43F002032363236B03F0B1
:101FA80002030193019BC02303931223049301238B
:101FB80005930323069303A904230793FEF756FB0F
:101FC8000295236C43F400132364236C03F4001379
:101FD8000293029B09B030BD005400400038024013
:101FE800000402400368B3F1804F07B513D1002203
:101FF80003F50E330192196C41F0010119641B6C51
:1020080003F0010301931C201146019BFEF7D6FA49
:102018001C20FEF707FB03B05DF804FB7047FEE7E2
:10202800FEE7FEE7FEE7704770477047FEF78EBA97
:102038000148FFF7FDBA00BFD00000200F49D1F8D2
:10204800883043F47003C1F888300D4B1A680020BB
:1020580042F001021A6098601A6822F0847222F431
:1020680080321A60074A5A601A6822F480221A607D
:10207800D8604FF000638B60704700BF00ED00E050
:102088000038024010300024DFF834D0002103E08B
:102098000C4B5B58435004310B480C4B42189A4286
:1020A800F6D30B4A02E0002342F8043B094B9A425C
:1020B800F9D3FFF7C3FF00F011F8FFF71BFE7047D5
:1020C800000002207C210008000000200C000020F5
:1020D8000C0000201C010020FEE7000070B50D4E2A
:1020E8000D4CA41BA4100025A54209D10B4E0C4C85
:1020F80000F020F8A41BA4100025A54205D170BD4E
:1021080056F8253098470135EEE756F825309847B8
:102118000135F2E7742100087421000874210008D1
:102128007821000802440346934200D1704703F81F
:10213800011BF9E7F8B500BFF8BC08BC9E4670471C
:0C214800F8B500BFF8BC08BC9E4670470C
:102154000000000000000000010203040607080953
:08216400000000000102030469
:08216C008CE0FF7F0100000080
:04217400AD010008B1
:0421780089010008D1
:0C217C0001000000100000000024F4002E
:04000005080020913E
:00000001FF
