:020000040800F2
:100000000000022055150008E9140008EB14000850
:10001000ED140008EF140008F114000800000000BF
:10002000000000000000000000000000F3140008C1
:10003000F514000800000000F7140008F914000887
:10004000A5150008A5150008A5150008A5150008A8
:10005000A5150008A5150008A5150008A515000898
:10006000A5150008A5150008A5150008A515000888
:10007000A5150008A5150008A5150008A515000878
:10008000A5150008A5150008A5150008A515000868
:10009000A5150008A5150008A5150008A515000858
:1000A000A5150008A5150008A5150008A515000848
:1000B000A5150008A5150008A5150008A515000838
:1000C000A5150008A5150008A5150008A515000828
:1000D000A5150008A5150008FD140008A5150008C1
:1000E000A5150008A5150008A5150008A515000808
:1000F000A5150008A5150008A5150008A5150008F8
:10010000A5150008A5150008A5150008A5150008E7
:10011000A5150008A5150008A5150008A5150008D7
:10012000A5150008A5150008A5150008A5150008C7
:10013000A5150008A5150008A5150008A5150008B7
:10014000A5150008A5150008A5150008A5150008A7
:10015000A5150008A5150008A5150008A515000897
:10016000A5150008A5150008A5150008A515000887
:10017000A5150008A5150008A51500080000000039
:08018000A5150008A5150008F3
:1001880010B5054C237833B9044B13B10448AFF3C9
:1001980000800123237010BD0C0200200000000025
:1001A8001016000808B5034B1BB103490348AFF309
:1001B800008008BD00000000100200201016000892
:1001C800034613F8012B002AFBD1181A013870478F
:1001D80053B94AB9002908BF00281CBF4FF0FF31A6
:1001E8004FF0FF3000F07AB9ADF1080C6DE904CE9C
:1001F80000F006F8DDF804E0DDE9022304B07047FA
:100208002DE9F0478C460D460446089E002B51D137
:100218008A4217466DD9B2FA82FEBEF1000F0BD0A2
:10022800CEF1200C01FA0EF520FA0CFC02FA0EF7BA
:100238004CEA050C00FA0EF44FEA174A250CBCFBF1
:10024800FAF81FFA87F90AFB18CC45EA0C4508FBAF
:1002580009F3AB420AD9ED1908F1FF3280F0238186
:10026800AB4240F22081A8F102083D44ED1AA4B245
:10027800B5FBFAF00AFB105544EA054400FB09F9FE
:10028800A14509D9E41900F1FF3380F00A81A1459D
:1002980040F2078102383C44A4EB090440EA0840D4
:1002A8000021002E61D024FA0EF40023346073601C
:1002B800BDE8F0878B4207D9002E54D0002186E88C
:1002C80021000846BDE8F087B3FA83F1002940F021
:1002D8008E80AB4202D3824200F2FA80841A65EB28
:1002E80003050120AC46002E3FD086E81010BDE87B
:1002F800F08712B90127B7FBF2F7B7FA87FEBEF10C
:10030800000F34D1EB1B3A0C1FFA87FC0121B3FB19
:10031800F2F8250C02FB183345EA03450CFB08F3F9
:10032800AB4207D9ED1908F1FF3002D2AB4200F217
:10033800D1808046ED1AA3B2B5FBF2F002FB10554E
:1003480043EA05440CFB00FCA44507D9E41900F175
:10035800FF3302D2A44500F2B8801846A4EB0C047F
:1003680040EA08409DE731463046BDE8F087CEF1C7
:10037800200405FA0EF307FA0EF720FA04F83A0CEF
:1003880025FA04F448EA0308B4FBF2F14FEA1845E9
:1003980002FB11441FFA87FC45EA044501FB0CF3F4
:1003A800AB4200FA0EF409D9ED1901F1FF3080F0E3
:1003B8008A80AB4240F2878002393D44EB1A1FFA2B
:1003C80088F5B3FBF2F002FB103345EA034500FB66
:1003D8000CF3AB4207D9ED1900F1FF386FD2AB42ED
:1003E8006DD902383D44EB1A40EA01418FE7C1F16B
:1003F800200722FA07F88B4005FA01F448EA0303BC
:1004080020FA07FE4FEA134CFD404EEA040EB5FBF6
:10041800FCF94FEA1E440CFB19551FFA83F844EA0D
:10042800054509FB08F4AC4202FA01F200FA01FAA8
:1004380008D9ED1809F1FF3043D2AC4241D9A9F1EE
:1004480002091D442D1B1FFA8EFEB5FBFCF00CFBA8
:1004580010554EEA054400FB08F8A04507D9E418F2
:1004680000F1FF3529D2A04527D902381C4440EABB
:100478000940A4EB0804A0FB02894C45C6464D463A
:1004880015D312D056B1BAEB0E0364EB050404FA87
:1004980007F7CB401F43CC40376074600021BDE8AC
:1004A800F0871846F8E69046E0E6C245EAD2B8EB8F
:1004B800020E69EB03050138E4E72846D7E7404612
:1004C80091E78146BEE7014678E702383C4445E7B4
:1004D800084608E7A8F102083D442BE7704700BF2B
:1004E80038B50E4A0E4B054618784FF47A73B3FBAD
:1004F800F0F31068B0FBF3F000F096F8044658B932
:100508000F2D09D8024629464FF0FF3000F04AF86F
:10051800044B20461D6038BD012038BD080200206C
:10052800000000200400002008B50B4B1A6842F4B4
:1005380000721A601A6842F480621A601A6842F4FB
:1005480080721A60032000F01BF80020FFF7C8FF34
:1005580000F06AFF002008BD003C0240034A044B3B
:1005680011681B780B441360704700BF30020020ED
:1005780000000020014B1868704700BF30020020BF
:10058800074AD36823F4E0631B041B0C43F0BF63E2
:10059800000243F4003300F4E0600343D360704783
:1005A80000ED00E0174B30B5DC68C4F30224C4F159
:1005B8000703251D042B28BF0423062D4FF0010532
:1005C80005FA03F303F1FF338CBF033C0024194001
:1005D800A14005FA04F4013C2240002842EA010245
:1005E8004FEA0212ADBF00F1604000F00F00064B69
:1005F80000F56140B5BFD2B2D2B21A5480F80023D8
:1006080030BD00BF00ED00E014ED00E0002808DB7D
:100618004209012300F01F0003FA00F0014B43F8E0
:100628002200704700E100E00138B0F1807F0AD273
:10063800064B074A5860F02182F823100020072251
:1006480098601A6070470120704700BF10E000E012
:1006580000ED00E090F83530022B03D0802343658D
:10066800012070470268052380F83530136823F0AD
:1006780001031360002070472DE9F04F85B00B6827
:10068800DFF8AC81684ADFF8AC91019300234FF0A2
:10069800010E019C0EFA03FE0EEA0406B64540F070
:1006A800AE804C6824F01007022F16D14FEAD30A07
:1006B80000EB8A0A03F0070BDAF820504FEA8B0B9D
:1006C8004FF00F0C0CFA0BFC25EA0C0C0D6905FA1F
:1006D8000BF545EA0C05CAF820504FEA430A0325F2
:1006E800D0F800B005FA0AF5ED4304F0030C0BEA64
:1006F800050B0CFA0AFC013F4CEA0B0C012FC0F861
:1007080000C011D8876807EA050BCF6807FA0AFC0A
:100718004CEA0B078760476827EA0E0EC4F30017F8
:100728009F4047EA0E074760C7683D408F6807FA51
:100738000AF73D43C560E50061D54FF0000BCDF8E1
:100748000CB0D8F84470394D47F48047C8F8447065
:10075800D8F8447007F480470397039F23F00307F2
:1007680007F1804707F59C3703F0030CD7F808A07A
:100778004FEA8C0C4FF00F0E0EFA0CFEA8422AEA34
:100788000E0E43D005F58065A84241D005F5806579
:10079800A8423FD005F58065A8423DD005F58065A3
:1007A800A8423BD048453BD005F50065A84239D062
:1007B80005F58065A84214BF0825072505FA0CF53C
:1007C80045EA0E05BD601568F74314F4803F0CBF79
:1007D8003D4035431560556814F4003F0CBF3D405B
:1007E80035435560956814F4801F0CBF3D40354370
:1007F8009560D568A40254BF3D403543D5600133A8
:10080800102B7FF444AF05B0BDE8F08F5D46D5E707
:100818000125D3E70225D1E70325CFE70425CDE756
:100828000525CBE70625C9E7003C0140000002404A
:1008380000380240001402400AB18161704709047F
:10084800FBE7436931EA030308BF09048161704784
:100858002DE9F341044618B9012002B0BDE8F08142
:100868000368DD0710D42368980758D423681A074B
:1008780000F19A8023685B0700F1B880A269002A1A
:1008880040F019810020E8E7A64B9A6802F00C02B4
:10089800042A07D09A6802F00C02082A0AD15B6879
:1008A800590207D59F4B1B689A03DCD56368002B58
:1008B800D9D1D1E763689B4DB3F5803F11D12B683F
:1008C80043F480332B60FFF755FE964D06462B68A0
:1008D8009B03C8D4FFF74EFE801B6428F7D903207A
:1008E800BBE7B3F5A02F04D12B6843F480232B601A
:1008F800E5E72A6822F480322A602A6822F48022F6
:100908002A60002BDFD1FFF735FE06462B689F03D0
:10091800A9D5FFF72FFE801B6428F7D9DFE7814BA5
:100928009A6812F00C0F07D09A6802F00C02082A95
:1009380011D15B685E020ED47A4B1A68950702D50E
:10094800E268012A88D11A68216922F0F80242EA8D
:10095800C1021A608AE7E268734BB2B101221A60D9
:10096800FFF708FE6F4D06462B68980707D52B68DA
:10097800226923F0F80343EAC2032B6076E7FFF706
:10098800F9FD801B0228EFD9A9E71A60FFF7F2FDED
:10099800644D06462B6899077FF568AFFFF7EAFDB7
:1009A800801B0228F6D99AE76269604B7AB1012266
:1009B8001A60FFF7DFFD5B4D06466B6F9F073FF53B
:1009C80059AFFFF7D7FD801B0228F6D987E71A60D1
:1009D800FFF7D0FD534D06466B6F98077FF54AAF7A
:1009E800FFF7C8FD801B0228F6D978E74D4B1A6C33
:1009F80012F0805228D101921A6C42F080521A6487
:100A08001B6C03F080530193019B0126484D2B6812
:100A1800D9051BD5A368434D012B27D12B6F43F074
:100A280001032B67FFF7A6FD3E4D074641F28838C4
:100A38002B6F9B0739D5002E3FF420AF394A136C32
:100A480023F08053136419E70026DFE72B6843F48B
:100A580080732B60FFF78EFD07462B68DA05D9D423
:100A6800FFF788FDC01B0228F7D938E7052B04D10A
:100A78002B6F43F004032B67D0E72A6F22F00102A3
:100A88002A672A6F22F004022A67002BCAD1FFF7CF
:100A980071FD41F2883807462B6F9807CBD5FFF7D1
:100AA80069FDC01B4045F7D919E7FFF763FDC01B77
:100AB8004045BDD913E71B4DAB6803F00C03082B69
:100AC8003FF4CAAE1B4E0023022A336034D1FFF72D
:100AD80051FD07462B6899011ED4226AE369134326
:100AE800626A43EA8213E26A43EA0263A26A0D4C2D
:100AF8005208013A43EA02436B6001233360FFF76F
:100B080039FD054623689A013FF5BCAEFFF732FD73
:100B1800401B0228F6D9E2E6FFF72CFDC01B02288D
:100B2800D8D9DCE60038024000004742800E474230
:100B38000070004060004742FFF71CFD04462B6828
:100B48009B017FF59FAEFFF715FD001B0228F6D924
:100B5800C5E600BF134908B58B6803F00C03042BE6
:100B680003D0082B03D0104808BD104808BD4A68B8
:100B78004B68496813F4800314BF0C480A48C1F352
:100B8800881118BF002302F03F02A1FB0001FFF704
:100B98001FFB044B5B68C3F3014301335B00B0FBED
:100BA800F3F008BD003802400024F40040787D01CD
:100BB8002DE9F0410D46044610B90120BDE8F08149
:100BC800444B1A6802F00F028A4228D321688F0723
:100BD8002DD4C80740D43F4B1A6802F00F02954243
:100BE80066D3226851076CD4130707D53A4A21699E
:100BF800936823F4604343EAC1039360FFF7AAFFB5
:100C0800354B364A9B68C3F30313D35CD840344B47
:100C180018600020FFF764FC0020BDE8F081CAB22C
:100C28001A701B6803F00F039942C6D1CEE72A4B0E
:100C380011F0040F1EBF9A6842F4E0529A600E0742
:100C480042BF9A6842F460429A609A68A06822F0AB
:100C5800F00202439A60BCE762681F4B012A1DD16B
:100C68001B6813F4003FA8D01B4EB36823F003039E
:100C78001343B360FFF77EFC41F288380746B36838
:100C8800626803F00C03B3EB820FA4D0FFF772FC89
:100C9800C01B4045F3D90320BDE8F081911E01290E
:100CA8001B6802D813F0007FDDE713F0020FDAE7C4
:100CB800EAB21A701B6803F00F039D427FF47DAF00
:100CC8008FE70549E0688B6823F4E05303438B60A2
:100CD8008AE700BF003C0240003802404416000882
:100CE80008020020044B054A9B68C3F38223D35CA7
:100CF800034A1068D840704700380240541600086C
:100D080008020020044B054A9B68C3F34233D35CB6
:100D1800034A1068D840704700380240541600084B
:100D2800080200200368DA6822F49072DA605A69CF
:100D380022F001025A61202380F83A3070470000FF
:100D48002DE9F0470668C2683369C16923F4405346
:100D580013433361044683680069F268034360699A
:100D680022F41642034322F00C020B431343F360B0
:100D78007369A26923F440731343B1F5004F73619B
:100D88007A4B7CD19E4203D003F580639E4244D1C6
:100D9800FFF7B8FF192505FB00F360684FF06409F9
:100DA8004000B3FBF0F3B3FBF9F34FEA0318FFF786
:100DB800A9FF636868435B00B0FBF3F7FFF7A2FF86
:100DC800636868435B00B0FBF3F3B3FBF9F309FB1B
:100DD8001373DB003233B3FBF9F35B0003F4F877EA
:100DE800FFF790FF626868435200B0FBF2FAFFF722
:100DF80089FF636868435B00B0FBF3F3B3FBF9F367
:100E080009FB13A3DB003233B3FBF9F303F0070349
:100E180043443B44B360BDE8F087FFF763FF1925FF
:100E280005FB00F360684FF064094000B3FBF0F382
:100E3800B3FBF9F34FEA0318FFF754FF63686843FD
:100E48005B00B0FBF3F7FFF74DFF636868435B0097
:100E5800B0FBF3F3B3FBF9F309FB1373DB00323395
:100E6800B3FBF9F35B0003F4F877FFF73BFF626825
:100E780068435200B0FBF2FAFFF734FFB9E79E422D
:100E880002D03B4B9E4240D1FFF73CFF67681925D3
:100E98004FF0640905FB00F3BF00B3FBF7F3B3FBA6
:100EA800F9F31F01FFF72EFF636868439B00B0FB4F
:100EB800F3F8FFF727FF636868439B00B0FBF3F381
:100EC800B3FBF9F309FB13831B013233B3FBF9F3CB
:100ED80003F0F008FFF716FF626868439200B0FB62
:100EE800F2FAFFF70FFF636868439B00B0FBF3F368
:100EF800B3FBF9F309FB13A31B013233B3FBF9F37B
:100F080003F00F0343EA080383E7FFF7EBFE676884
:100F180019254FF0640905FB00F3BF00B3FBF7F395
:100F2800B3FBF9F31F01FFF7DDFE636868439B001D
:100F3800B0FBF3F8FFF7D6FE636868439B00B0FB8D
:100F4800F3F3B3FBF9F309FB13831B013233B3FB50
:100F5800F9F303F0F008FFF7C5FE626868439200F2
:100F6800B0FBF2FAFFF7BEFEBDE700BF001001407C
:100F78000014014010B5044640B390F8393003F02E
:100F8800FF021BB980F8382000F06AFA226824238F
:100F980084F83930D36823F40053D3602046FFF730
:100FA800CFFE23681A6922F490421A615A6922F026
:100FB8002A025A61DA6842F40052DA6000202023DB
:100FC800E06384F8393084F83A3010BD012010BD50
:100FD80090F83930202B18D1A9B1A2B190F8383047
:100FE800012B12D0C2840162828400230168C3638A
:100FF800212280F83920CA6880F8383042F080020F
:10100800CA6018467047012070470220704790F860
:101018003A30202B20D1E9B1E2B190F83830012BD9
:101028001AD0C285828500232222C36380F83A2021
:1010380002688162D16880F8383041F48071D160EB
:10104800516941F001015161D16841F02001D1603D
:1010580018467047012070470220704790F83A30D0
:10106800222B10B536D1836801690268B3F5805F19
:10107800836A23D15268E9B9C2F3080223F8022B24
:101088008362C48D013CA4B2C4858CB90368DA6854
:1010980022F02002DA60DA6822F48072DA605A6993
:1010A80022F001025A61202380F83A3000F082F9D8
:1010B800002010BDD2B223F8012BE1E721B9591C59
:1010C800526881621A70DCE75268591C816202F02A
:1010D8007F02F7E7022010BD7047000003681A6816
:1010E800D96870B5160704465D6907D196065AD5C2
:1010F8008D0658D5BDE87040FFF7B0BF15F0010563
:1011080002D111F4907F4ED0D30705D5CE0542BF4A
:10111800E36B43F00103E363500704D51DB1E36BB0
:1011280043F00203E363930704D51DB1E36B43F077
:101138000403E363160704D51DB1E36B43F008030A
:10114800E363E36B002B66D0950604D5880602D5C9
:101158002046FFF783FF23685D69E26B110720468D
:1011680002D415F040051AD0FFF7DCFD23685A6950
:10117800520610D55A69606B22F040025A6150B18C
:10118800254B0365FFF766FA002844D0606BBDE87D
:101198007040036D18472046FFF79EFF70BDFFF7AC
:1011A8009BFFE56370BD160627D50D0625D594F877
:1011B8003920212A2FD1A268B2F5805F226A17D17F
:1011C8001188C1F308015960216979B90232226294
:1011D800E28C013A92B2E284EAB9DA6822F080023B
:1011E800DA60DA6842F04002DA6070BD0132EEE798
:1011F800511C216212785A60EAE750060BD54A065C
:1012080009D5DA6822F04002DA60202384F8393000
:10121800204600F0CDF870BD2512000808B5806B97
:101228000023C385C384FFF757FF08BD30B595B0C9
:101238003022002108A800F0D7F90021142203A8C1
:1012480000F0D2F900241C4B01941A6C42F0805231
:101258001A641B6C03F080530193019B174B029493
:101268001A6842F480421A601B680F9403F48043A2
:101278000293029B01230B9310230C9308231093D2
:10128800A8230225119308A80423139308950E9503
:101298001295FFF7DDFA0F2303934FF4A05306933B
:1012A80005214FF4805303A8049505940793FFF78D
:1012B8007FFC15B030BD00BF003802400070004010
:1012C80080B588B0FFF730F9FFF7B0FF142200218E
:1012D80003A800F089F900252E4B00951A6B2E48BB
:1012E8002E4C42F080021A631A6B02F080020092C0
:1012F800009A01951A6B42F001021A631A6B02F008
:1013080001020192019A02951A6B42F002021A63D5
:101318001B6B03F002032A4602934FF40071029BF1
:101328004FF40076FFF788FA012703A91A480595B4
:10133800069503960497FFF79FF9194AA5604FF49D
:10134800165384E80C0020460C236361E560256190
:10135800A561E561FFF70EFE1249134800F04CF94C
:101368001148FEF72DFF104982B22046FFF730FEE4
:101378003A460E492046FFF74AFE2A4631460648B5
:101388000A4DFFF759FA012229462046FFF73FFE8A
:10139800F9E700BF00380240000402409C02002028
:1013A80000440040281600080800002034020020ED
:1013B80000BF704738B50268144B9A4223D1144CC9
:1013C800144900232360144B1A6802B90A701348A1
:1013D80000780A2809BF002088548854186014BF70
:1013E800551C01234FF001020C490D4814BF1D6024
:1013F8002360FFF70CFE2368012B04D14FF4007122
:101408000848FFF71EFA00BF38BD00BF004400407F
:101418002C0200203602002028020020340200207E
:101428009C0200200004024082B00C4B0021009175
:101438005A6C42F480425A645A6C02F48042009218
:10144800009A01911A6C42F080521A641B6C03F0E6
:1014580080530193019B02B0704700BF00380240DF
:1014680010B5044688B01422002103A800F0BCF887
:101478002268194B9A422CD103F5FA3300240194BF
:101488001A6C164842F400321A641A6C02F40032DC
:101498000192019A02941A6B42F001021A631B6BC3
:1014A80003F001030293029B0C230393022304938A
:1014B800012305930323069303A907230793FFF743
:1014C800DBF8262022462146FFF76CF82620FFF796
:1014D8009DF808B010BD00BF004400400000024065
:1014E8007047FEE7FEE7FEE7FEE770477047704784
:1014F800FFF734B80148FFF7F1BD00BF9C02002098
:101508000F49D1F8883043F47003C1F888300D4B87
:101518001A68002042F001021A6098601A6822F0E6
:10152800847222F480321A60074A5A601A6822F4D8
:1015380080221A60D8604FF000638B60704700BF4C
:1015480000ED00E00038024010300024DFF834D00D
:10155800002103E00C4B5B58435004310B480C4B03
:1015680042189A42F6D30B4A02E0002342F8043BA1
:10157800094B9A42F9D3FFF7C3FF00F011F8FFF7C0
:101588009FFE7047000002206C1600080000002033
:101598000C0200200C020020DC020020FEE7000004
:1015A80070B50D4E0D4CA41BA4100025A54209D101
:1015B8000B4E0C4C00F028F8A41BA4100025A542E3
:1015C80005D170BD56F8253098470135EEE756F835
:1015D800253098470135F2E76416000864160008BC
:1015E800641600086816000802440346934200D1B6
:1015F800704703F8011BF9E7034611F8012B03F8BC
:10160800012B002AF9D17047F8B500BFF8BC08BC17
:101618009E467047F8B500BFF8BC08BC9E467047A8
:10162800496E696369616C697A616E646F206F20C5
:10163800626C7565746F6F74680A000000000000C2
:10164800000000000102030406070809000000006A
:041658000102030484
:08165C00ACEBFF7F0100000070
:04166400AD010008CC
:0416680089010008EC
:10166C00010000001000000048656C6C6F20576F83
:10167C00726C640A00000000000000000000000012
:10168C00000000000000000000000000000000004E
:10169C00000000000000000000000000000000003E
:1016AC00000000000000000000000000000000002E
:1016BC00000000000000000000000000000000001E
:1016CC00000000000000000000000000000000000E
:1016DC0000000000000000000000000000000000FE
:1016EC0000000000000000000000000000000000EE
:1016FC0000000000000000000000000000000000DE
:10170C0000000000000000000000000000000000CD
:10171C0000000000000000000000000000000000BD
:10172C0000000000000000000000000000000000AD
:10173C00000000000000000000000000000000009D
:10174C00000000000000000000000000000000008D
:10175C00000000000000000000000000000000007D
:10176C00000000000000000000000000000000006D
:10177C00000000000000000000000000000000005D
:10178C00000000000000000000000000000000004D
:10179C00000000000000000000000000000000003D
:1017AC00000000000000000000000000000000002D
:1017BC00000000000000000000000000000000001D
:1017CC00000000000000000000000000000000000D
:1017DC0000000000000000000000000000000000FD
:1017EC0000000000000000000000000000000000ED
:1017FC0000000000000000000000000000000000DD
:10180C0000000000000000000000000000000000CC
:10181C0000000000000000000000000000000000BC
:10182C0000000000000000000000000000000000AC
:10183C00000000000000000000000000000000009C
:10184C00000000000000000000000000000000008C
:10185C00000000000000000000000000000000007C
:0C186C0000000000000000000024F40058
:040000050800155585
:00000001FF
