:020000040800F2
:100000000030002025100008950F0008970F000809
:10001000990F00089B0F00089D0F000800000000CA
:100020000000000000000000000000009F0F00081A
:10003000A10F000800000000A30F0008A50F000892
:10004000751000087510000875100008751000087C
:10005000751000087510000875100008751000086C
:100060007510000875100008A90F00087510000829
:10007000751000087510000875100008751000084C
:10008000751000087510000875100008751000083C
:10009000751000087510000875100008751000082C
:1000A0007510000875100008B10F000875100008E1
:1000B0007510000875100008000000007510000899
:1000C0007510000800000000000000007510000816
:1000D0000000000075100008751000087510000879
:1000E00075100008751000080000000000000000F6
:1000F0000000000000000000000000000000000000
:1001000000000000000000000000000000000000EF
:1001100000000000000000007510000875100008C5
:1001200000000000000000000000000000000000CF
:1001300000000000000000000000000000000000BF
:100140007510000875100008000000000000000095
:10015000000000000000000000000000000000009F
:10016000000000000000000000000000000000008F
:10017000000000000000000000000000000000007F
:080180000000000075100008EA
:1001880010B5054C237833B9044B13B10448AFF3C9
:1001980000800123237010BD0C0000200000000027
:1001A800D010000808B5034B1BB103490348AFF34F
:1001B800008008BD0000000010000020D0100008DA
:1001C80038B50E4A0E4B054618784FF47A73B3FBD0
:1001D800F0F31068B0FBF3F000F08CF8044658B95F
:1001E8000F2D09D8024629464FF0FF3000F042F89B
:1001F800044B20461D6038BD012038BD0800002092
:100208000000002004000020074A08B5136843F0E6
:1002180010031360032000F01BF80020FFF7D0FF45
:1002280000F07EFE002008BD00200240034A044B77
:1002380011681B780B441360704700BF2C00002026
:1002480000000020014B1868704700BF2C000020F8
:10025800074AD36823F4E0631B041B0C43F0BF6315
:10026800000243F4003300F4E0600343D3607047B6
:1002780000ED00E0174B30B5DC68C4F30224C4F18C
:100288000703251D042B28BF0423062D4FF0010565
:1002980005FA03F303F1FF338CBF033C0024194034
:1002A800A14005FA04F4013C2240002842EA010278
:1002B8004FEA0212AFBF00F1604000F00F00064B9A
:1002C800D2B2A5BF00F56140D2B21A5480F800231B
:1002D80030BD00BF00ED00E014ED00E0420901234D
:1002E80000F01F0003FA00F0014B43F822007047AA
:1002F80000E100E00138B0F1807F0AD2064B074ADE
:100308005860F02182F823100020072298601A60B4
:1003180070470120704700BF10E000E000ED00E0EA
:100328002DE9F04F85B00B68DFF86481564A0193D8
:100338004FF00F090023019CDC4002D105B0BDE855
:10034800F08F012404FA03FA019C14EA0A0500F06C
:1003580093804C6824F0100BBBF1020F11D1DF0819
:1003680000EB870703F0070E3E6A4FEA8E0E09FA84
:100378000EFC26EA0C0C0E6906FA0EF646EA0C0686
:100388003E624FEA430C0327066807FA0CF7FF435F
:1003980004F0030E3E400EFA0CFE0BF1FF3B4EEA52
:1003A8000606BBF1010F066011D8866806EA070B3E
:1003B800CE6806FA0CFE4EEA0B068660466826EA08
:1003C8000A0AC4F300169E4046EA0A064660C66852
:1003D80037408E6806FA0CF63743E600C7604BD5FF
:1003E800D8F8186046F00106C8F81860D8F8186000
:1003F80023F0030707F1804706F0010607F5803769
:10040800039603F0030E039EBE684FEA8E0E09FAA8
:100418000EFCB0F1904F26EA0C0C2FD01B4EB042C8
:100428002ED006F58066B0422CD006F58066B04224
:1004380014BF0526032606FA0EF646EA0C06BE6029
:100448001668EF4314F4803F0CBF3E402E431660FD
:10045800566814F4003F0CBF3E402E435660966821
:1004680014F4801F0CBF3E402E439660D668A40249
:1004780054BF3E402E43D66001335CE70026DAE7DE
:100488000126D8E70226D6E7000401400004004808
:10049800001002400AB18161704781627047436968
:1004A800594041617047000008B5044B5969014241
:1004B80002D0586100F004FD08BD00BF00040140EF
:1004C8002DE9F347054618B9012002B0BDE8F087C9
:1004D8000368DA0711D42B689B0700F185802B6825
:1004E8001C0700F1F6802B68580700F13F81EA6984
:1004F800002A40F0D6810020E7E7BA4C636803F091
:100508000C03042B07D0636803F00C03082B16D1E7
:100518006368DF0313D54FF4003393FAA3F221681D
:1005280093FAA3F3B3FA83F303F01F03012202FA49
:1005380003F30B42CFD06B68002BCCD1C4E76A68B9
:10054800B2F5803F25D1236843F480332360E36A02
:10055800A96823F00F030B43E36252B3FFF772FE5F
:100568004FF400368046012796FAA6F3226896FAD9
:10057800A6F3B3FA83F303F01F0307FA03F3134256
:10058800A9D1FFF75FFEA0EB08006428ECD903208F
:100598009BE7236832B923F480332360236823F46C
:1005A8008023D3E7B2F5A02FF5D143F4802323604D
:1005B800C9E7FFF747FE4FF400368046012796FA51
:1005C800A6F3226896FAA6F3B3FA83F303F01F039F
:1005D80007FA03F313423FF47EAFFFF733FEA0EBB5
:1005E80008006428EBD9D2E77E4C636813F00C0F3F
:1005F80007D0636803F00C03082B22D16368DE037D
:100608001FD4022393FAA3F2216893FAA3F3B3FA4F
:1006180083F303F01F03012202FA03F30B4203D012
:100628002B6993427FF450AF2168F82393FAA3F320
:10063800B3FA83F26B69934021F0F8021343236005
:100648004DE72A6901260AB396FAA6F3B3FA83F3AB
:1006580003F1845303F584139B0002271E60FFF700
:10066800F1FD804697FAA7F3226897FAA7F3B3FA41
:1006780083F303F01F0306FA03F31342D4D1FFF701
:10068800E1FDA0EB08000228ECD980E796FAA6F372
:10069800B3FA83F303F1845303F584139B00022711
:1006A8001A60FFF7CFFD804697FAA7F3226897FAFA
:1006B800A7F3B3FA83F303F01F0306FA03F3134215
:1006C8003FF40DAFFFF7BEFDA0EB08000228EBD901
:1006D8005DE7AA69434E444901241AB394FAA4F386
:1006E800B3FA83F30B449B0002271C60FFF7AAFDB3
:1006F800804697FAA7F397FAA7F397FAA7F3726ACF
:1007080097FAA7F3B3FA83F303F01F0304FA03F38A
:1007180013427FF4E8AEFFF795FDA0EB080002282E
:10072800E7D934E794FAA4F3B3FA83F30B449B00B4
:1007380002271A60FFF786FD804697FAA7F397FA13
:10074800A7F397FAA7F3726A97FAA7F3B3FA83F3B2
:1007580003F01F0304FA03F313423FF4C4AEFFF798
:1007680071FDA0EB08000228E7D910E71D4CE369EA
:10077800D90034D4E36943F08053E361E36903F0BB
:1007880080530193019B0126184F3B68DA052FD54A
:10079800EB68012B3DD1236A43F001032362FFF785
:1007A80051FD02278246B9464FF0010897FAA7F390
:1007B80097FAA7F3002B6CD0226A99FAA9F3B3FA37
:1007C80083F303F01F0308FA03F3134258D0002EF3
:1007D8003FF48DAEE36923F08053E36187E600269A
:1007E800D2E700BF00100240208190100070004046
:1007F8003B6843F480733B60FFF724FD80463B6809
:10080800DB05C5D4FFF71EFDA0EB08006428F6D968
:10081800BDE63BBB236A23F001032362236A23F06E
:1008280004032362FFF70EFD02278246B9464FF004
:10083800010897FAA7F397FAA7F373B3226A99FA0C
:10084800A9F3B3FA83F303F01F0308FA03F313427F
:10085800BDD0FFF7F7FC41F28833A0EB0A009842BD
:10086800E7D994E6052B236A03D143F004032362F6
:1008780091E723F001032362236A23F004038DE741
:10088800FFF7E0FC41F28833A0EB0A0098428DD9CB
:100898007DE697FAA7F3626A8FE797FAA7F3626A89
:1008A800CDE7414C636803F00C03082B3FF40CAE12
:1008B800022A4FF0807352D193FAA3F3B3FA83F369
:1008C80003F1845303F584139B0000221A60FFF799
:1008D800B9FC4FF000778046012697FAA7F3226803
:1008E80097FAA7F3B3FA83F303F01F0306FA03F3A7
:1008F80013422DD162686B6A296A22F474120B4381
:10090800134363604FF0807393FAA3F3B3FA83F34E
:1009180003F1845303F584139B004FF000751E60A8
:10092800FFF790FC0126074695FAA5F3226895FA89
:10093800A5F3B3FA83F303F01F0306FA03F3134294
:100948007FF4D9ADFFF77EFCC01B0228ECD91EE668
:10095800FFF778FCA0EB08000228BED917E693FA47
:10096800A3F3B3FA83F303F1845303F584139B00D1
:1009780000221A60FFF766FC4FF000750746012653
:1009880095FAA5F3226895FAA5F3B3FA83F303F071
:100998001F0306FA03F313423FF4ADADFFF752FC11
:1009A800C01B0228ECD9F2E50010024010B5134C28
:1009B800616801F00C03082B1ED14FF4701393FAF1
:1009C800A3F301F47012B3FA83F322FA03F30C4A87
:1009D800D05CE36A0F2292FAA2F2B2FA82F203F032
:1009E8000F03D340074AD25CCB034ABF064B074BE1
:1009F800B3FBF2F3584310BD034810BD001002408A
:100A0800E8100008F810000800127A0000093D00FC
:100A18002DE9F0410D46044610B90120BDE8F081EA
:100A28004C4A136803F007038B422ED322689107C0
:100A380036D4D2073CD4474A136803F007039D42D3
:100A480075D32268444D12F0040F7CD1130706D5E4
:100A58006B68226923F4605343EAC2036B60FFF7B3
:100A6800A5FF6B68F02292FAA2F2B2FA82F203F0C2
:100A7800F003D340394AD35CD840394B1860002082
:100A8800FFF79EFB0020BDE8F081136823F0070301
:100A98000B431360136803F007039942BDD1C5E700
:100AA8002D49A0684B6823F0F00303434B60C0E76F
:100AB8006268294E012A27D14FF4003393FAA3F133
:100AC800316893FAA3F3B3FA83F303F01F0302FA2E
:100AD80003F30B42A1D0736823F003031A43726037
:100AE800FFF7B0FB41F2883807467368626803F085
:100AF8000C03B3EB820F9ED0FFF7A4FBC01B40454D
:100B0800F3D90320BDE8F081022A0CBF4FF000732F
:100B1800022393FAA3F1306893FAA3F3B3FA83F3A9
:100B280003F01F03012101FA03F30342D2E713681C
:100B380023F007032B431360136803F007039D4258
:100B48007FF46BAF7DE76B68E16823F4E0630B43E8
:100B58006B607BE70020024000100240081100088B
:100B6800080000200368DA6842F00102DA601A68B7
:100B780042F001021A60002070470368DA6822F028
:100B88000102DA60196A41F21112114208D1196A98
:100B980040F24442114202BF1A6822F001021A6070
:100BA80000207047704770477047704703681A699C
:100BB800910710B504460FD5DA6892070CD56FF087
:100BC80002021A619B6901229907027700F0858069
:100BD800FFF7E9FF0023237723681A69520710D526
:100BE800DA6850070DD56FF004021A619B6902227A
:100BF80013F4407F2277204675D0FFF7D4FF0023F7
:100C0800237723681A6911070FD5DA6812070CD5FC
:100C18006FF008021A61DB6904229B0722772046DD
:100C280067D0FFF7C0FF0023237723681A69D0062F
:100C380010D5DA68D1060DD56FF010021A61DB699C
:100C4800082213F4407F2277204658D0FFF7ABFFE5
:100C58000023237723681A69D20708D5DA68D007F2
:100C680005D56FF001021A61204600F03DF92368AE
:100C78001A69110608D5DA68120605D56FF08002E0
:100C88001A61204600F0A7F823681A69D00508D52C
:100C9800DA68110605D56FF480721A61204600F0F3
:100CA8009BF823681A69520608D5DA68500605D5F4
:100CB8006FF040021A612046FFF777FF23681A6930
:100CC800910622D5DA6892061FD56FF020022046D9
:100CD8001A61BDE8104000F07DB8FFF763FF2046B9
:100CE800FFF762FF76E7FFF75DFF2046FFF75CFF3F
:100CF80085E7FFF757FF2046FFF756FF93E7FFF713
:100D080051FF2046FFF750FFA2E710BD214A0368B4
:100D1800904210B505D0B0F1804F02D01E4CA042D1
:100D28000CD14C6823F07003904243EA040310D0BE
:100D3800B0F1804F0DD0184A90420AD0174A90421D
:100D480007D002F58062904203D002F5806290429B
:100D580003D1CA6823F4407313434A6923F080031C
:100D6800134303608B68C3620B688362094B984224
:100D78000BD003F5A053984207D003F5806398423F
:100D880003D003F58063984201D10B690363012303
:100D9800436110BD002C01400004004000400140A8
:100DA80010B50446A0B190F83D3003F0FF021BB91E
:100DB80080F83C2000F0CCF8022384F83D3020680D
:100DC800211DFFF7A3FF012384F83D30002010BD4B
:100DD800012010BD70477047704700B591B02822B8
:100DE800002106A800F068F91422002101A800F0EB
:100DF80063F90223069301230A9306A810230B9391
:100E0800FFF75EFB00210F2301A8019302910391D4
:100E180004910591FFF7FCFD11B05DF804FB00009B
:100E28007FB5FFF7F1F9FFF7D8FF1422002101A8D9
:100E380000F042F91D4B1E485A6942F480225A615B
:100E48005B6903F48023002200930821009BFFF7CD
:100E580021FB08230024019301A9012314480293CC
:100E680003940494FFF75CFA10230193114B029347
:100E780001A902230E480393FFF752FA224621469E
:100E88000A20FFF7F7F90A20FFF728FA0A480B4A61
:100E980084604FF4487380E80C006423C3600461E5
:100EA80044618461FFF77CFFFEE700BF0010024049
:100EB80000040048000011103000002000480140E4
:100EC80010280BD1064B1A7842B9064801221A702D
:100ED80003686FF001021A61FFF744BE00BF704754
:100EE800280000203000002008B50268084B9A420C
:100EF8000BD10848FFF741FE074B084800221A703B
:100F08000821BDE80840FFF7CABA00BF08BD00BF06
:100F1800004801403000002028000020000400485C
:100F28000A4B9A6942F001029A619A6982B002F00A
:100F380001020092009ADA6942F08052DA61DB69B4
:100F480003F080530193019B02B0704700100240E8
:100F580007B50D4B02689A4212D103F548431A208F
:100F68009A6942F480229A619B69002203F48023E3
:100F780001931146019BFFF77DF91A20FFF7AEF99F
:100F880003B05DF804FB00BF004801407047FEE76E
:100F9800FEE7FEE7FEE7704770477047FFF746B980
:100FA8001020FFF781BA00000148FFF7FFBD00BF1E
:100FB800300000201549D1F8883043F47003C1F897
:100FC8008830134B1A6842F001021A605868114AB7
:100FD80002405A601A6822F0847222F480321A6041
:100FE8001A6822F480221A605A6822F4FE025A60B3
:100FF800DA6A22F00F02DA62186B074A02401A63B3
:1010080000229A604FF000638B60704700ED00E0AB
:10101800001002400CC07FF8CCFC00FFDFF834D091
:10102800002103E00C4B5B58435004310B480C4B38
:1010380042189A42F6D30B4A02E0002342F8043BD6
:10104800094B9A42F9D3FFF7B5FF00F011F8FFF703
:10105800E7FEFEE700300020201100080000002015
:101068000C0000200C00002070000020FEE70000AB
:1010780070B50D4E0D4CA41BA4100025A54209D136
:101088000B4E0C4C00F020F8A41BA4100025A54220
:1010980005D170BD56F8253098470135EEE756F86A
:1010A800253098470135F2E7181100081811000893
:1010B800181100081C11000802440346934200D18D
:1010C800704703F8011BF9E7F8B500BFF8BC08BC86
:1010D8009E467047F8B500BFF8BC08BC9E467047EE
:1010E80002030405060708090A0B0C0D0E0F101061
:1010F8000102030405060708090A0B0C0D0E0F1060
:1011080000000000000000000102030406070809AF
:04111800AD0100081D
:04111C00890100083D
:0C112000010000001000000000127A0026
:0400000508001025BA
:00000001FF
